{
  "contractName": "TournamentScores",
  "abi": [
    {
      "anonymous": false,
      "inputs": [
        {
          "indexed": false,
          "internalType": "string",
          "name": "playerName",
          "type": "string"
        },
        {
          "indexed": false,
          "internalType": "uint256",
          "name": "score",
          "type": "uint256"
        },
        {
          "indexed": false,
          "internalType": "uint256",
          "name": "timestamp",
          "type": "uint256"
        }
      ],
      "name": "ScoreAdded",
      "type": "event"
    },
    {
      "inputs": [
        {
          "internalType": "uint256",
          "name": "",
          "type": "uint256"
        }
      ],
      "name": "scores",
      "outputs": [
        {
          "internalType": "string",
          "name": "playerName",
          "type": "string"
        },
        {
          "internalType": "uint256",
          "name": "score",
          "type": "uint256"
        },
        {
          "internalType": "uint256",
          "name": "timestamp",
          "type": "uint256"
        }
      ],
      "stateMutability": "view",
      "type": "function"
    },
    {
      "inputs": [
        {
          "internalType": "string",
          "name": "playerName",
          "type": "string"
        },
        {
          "internalType": "uint256",
          "name": "score",
          "type": "uint256"
        }
      ],
      "name": "addScore",
      "outputs": [],
      "stateMutability": "nonpayable",
      "type": "function"
    },
    {
      "inputs": [],
      "name": "getScores",
      "outputs": [
        {
          "components": [
            {
              "internalType": "string",
              "name": "playerName",
              "type": "string"
            },
            {
              "internalType": "uint256",
              "name": "score",
              "type": "uint256"
            },
            {
              "internalType": "uint256",
              "name": "timestamp",
              "type": "uint256"
            }
          ],
          "internalType": "struct TournamentScores.Score[]",
          "name": "",
          "type": "tuple[]"
        }
      ],
      "stateMutability": "view",
      "type": "function"
    }
  ],
  "bytecode": "0x608060405234801561000f575f80fd5b50610a5a8061001d5f395ff3fe608060405234801561000f575f80fd5b506004361061003f575f3560e01c80631ea1380c146100435780632ee691a314610061578063f4c5cd3c14610093575b5f80fd5b61004b6100af565b60405161005891906104bc565b60405180910390f35b61007b60048036038101906100769190610517565b6101ad565b60405161008a93929190610599565b60405180910390f35b6100ad60048036038101906100a89190610701565b610267565b005b60605f805480602002602001604051908101604052809291908181526020015f905b828210156101a4578382905f5260205f2090600302016040518060600160405290815f8201805461010190610788565b80601f016020809104026020016040519081016040528092919081815260200182805461012d90610788565b80156101785780601f1061014f57610100808354040283529160200191610178565b820191905f5260205f20905b81548152906001019060200180831161015b57829003601f168201915b5050505050815260200160018201548152602001600282015481525050815260200190600101906100d1565b50505050905090565b5f81815481106101bb575f80fd5b905f5260205f2090600302015f91509050805f0180546101da90610788565b80601f016020809104026020016040519081016040528092919081815260200182805461020690610788565b80156102515780601f1061022857610100808354040283529160200191610251565b820191905f5260205f20905b81548152906001019060200180831161023457829003601f168201915b5050505050908060010154908060020154905083565b5f604051806060016040528084815260200183815260200142815250908060018154018082558091505060019003905f5260205f2090600302015f909190919091505f820151815f0190816102bc9190610955565b50602082015181600101556040820151816002015550507f3c45fce1519249d6c5984271f747943fe00fb0916cd04f104f2f1fd09e68d4f082824260405161030693929190610599565b60405180910390a15050565b5f81519050919050565b5f82825260208201905092915050565b5f819050602082019050919050565b5f81519050919050565b5f82825260208201905092915050565b5f5b83811015610372578082015181840152602081019050610357565b5f8484015250505050565b5f601f19601f8301169050919050565b5f6103978261033b565b6103a18185610345565b93506103b1818560208601610355565b6103ba8161037d565b840191505092915050565b5f819050919050565b6103d7816103c5565b82525050565b5f606083015f8301518482035f8601526103f7828261038d565b915050602083015161040c60208601826103ce565b50604083015161041f60408601826103ce565b508091505092915050565b5f61043583836103dd565b905092915050565b5f602082019050919050565b5f61045382610312565b61045d818561031c565b93508360208202850161046f8561032c565b805f5b858110156104aa578484038952815161048b858261042a565b94506104968361043d565b925060208a01995050600181019050610472565b50829750879550505050505092915050565b5f6020820190508181035f8301526104d48184610449565b905092915050565b5f604051905090565b5f80fd5b5f80fd5b6104f6816103c5565b8114610500575f80fd5b50565b5f81359050610511816104ed565b92915050565b5f6020828403121561052c5761052b6104e5565b5b5f61053984828501610503565b91505092915050565b5f82825260208201905092915050565b5f61055c8261033b565b6105668185610542565b9350610576818560208601610355565b61057f8161037d565b840191505092915050565b610593816103c5565b82525050565b5f6060820190508181035f8301526105b18186610552565b90506105c0602083018561058a565b6105cd604083018461058a565b949350505050565b5f80fd5b5f80fd5b7f4e487b71000000000000000000000000000000000000000000000000000000005f52604160045260245ffd5b6106138261037d565b810181811067ffffffffffffffff82111715610632576106316105dd565b5b80604052505050565b5f6106446104dc565b9050610650828261060a565b919050565b5f67ffffffffffffffff82111561066f5761066e6105dd565b5b6106788261037d565b9050602081019050919050565b828183375f83830152505050565b5f6106a56106a084610655565b61063b565b9050828152602081018484840111156106c1576106c06105d9565b5b6106cc848285610685565b509392505050565b5f82601f8301126106e8576106e76105d5565b5b81356106f8848260208601610693565b91505092915050565b5f8060408385031215610717576107166104e5565b5b5f83013567ffffffffffffffff811115610734576107336104e9565b5b610740858286016106d4565b925050602061075185828601610503565b9150509250929050565b7f4e487b71000000000000000000000000000000000000000000000000000000005f52602260045260245ffd5b5f600282049050600182168061079f57607f821691505b6020821081036107b2576107b161075b565b5b50919050565b5f819050815f5260205f209050919050565b5f6020601f8301049050919050565b5f82821b905092915050565b5f600883026108147fffffffffffffffffffffffffffffffffffffffffffffffffffffffffffffffff826107d9565b61081e86836107d9565b95508019841693508086168417925050509392505050565b5f819050919050565b5f61085961085461084f846103c5565b610836565b6103c5565b9050919050565b5f819050919050565b6108728361083f565b61088661087e82610860565b8484546107e5565b825550505050565b5f90565b61089a61088e565b6108a5818484610869565b505050565b5b818110156108c8576108bd5f82610892565b6001810190506108ab565b5050565b601f82111561090d576108de816107b8565b6108e7846107ca565b810160208510156108f6578190505b61090a610902856107ca565b8301826108aa565b50505b505050565b5f82821c905092915050565b5f61092d5f1984600802610912565b1980831691505092915050565b5f610945838361091e565b9150826002028217905092915050565b61095e8261033b565b67ffffffffffffffff811115610977576109766105dd565b5b6109818254610788565b61098c8282856108cc565b5f60209050601f8311600181146109bd575f84156109ab578287015190505b6109b5858261093a565b865550610a1c565b601f1984166109cb866107b8565b5f5b828110156109f2578489015182556001820191506020850194506020810190506109cd565b86831015610a0f5784890151610a0b601f89168261091e565b8355505b6001600288020188555050505b50505050505056fea2646970667358221220ef5fbd2883d5e78e0051669d611617b14f139186505048b8bcbee722cccc755964736f6c63430008150033",
  "immutableReferences": {},
  "source": "// SPDX-License-Identifier: MIT\npragma solidity ^0.8.0;\n\ncontract TournamentScores {\n    struct Score {\n        string playerName;\n        uint256 score;\n        uint256 timestamp;\n    }\n\n    Score[] public scores;\n\n    event ScoreAdded(string playerName, uint256 score, uint256 timestamp);\n\n    function addScore(string memory playerName, uint256 score) public {\n        scores.push(Score(playerName, score, block.timestamp));\n        emit ScoreAdded(playerName, score, block.timestamp);\n    }\n\n    function getScores() public view returns (Score[] memory) {\n        return scores;\n    }\n}\n",
  "sourcePath": "/Users/katesansom/Dropbox/42_exes/ft_transcendence/scoresBlockchain/contracts/scores.sol",
  "compiler": {
    "name": "solc",
    "version": "0.8.21+commit.d9974bed.Emscripten.clang"
  },
  "schemaVersion": "3.4.16",
  "updatedAt": "2024-12-27T07:52:55.508Z",
  "devdoc": {
    "kind": "dev",
    "methods": {},
    "version": 1
  },
  "userdoc": {
    "kind": "user",
    "methods": {},
    "version": 1
  }
}